:020000040000FA
:0A00000063280000000000004F28F4
:06000A00820701340234FC
:1000100004340834103420344034803482070134EE
:100020000234043440348034003400340034820715
:1000300010341B3426343134A1011030342003191C
:100040000800A10A1B30342003190800A10A263039
:10005000342003190800A10A3130342003190800A4
:10006000FF30A100A2000800A201831603139B0029
:10007000831603131C141A0883120313A500250802
:100080003A0603190800831603139B0A831203130D
:10009000A20A0B302206031D382803110800AD0008
:1000A00003088301AE000A08AF008A010408B0000B
:1000B0008C18F220300884002F088A002E08830054
:1000C000AD0E2D0E090000308500860007309F0020
:1000D0000630920083160313BB3092006400810146
:1000E0008101831603130E309B00831603131C1427
:1000F0001A0883120313A300831603139B0F83169E
:1001000003131C141A0883120313A400851E042968
:1001100083160313103085000030860002308C00F7
:10012000831203138C01A801A001C0308B00A6012B
:10013000A701FF30AB00AC009921361C9C28B61CEF
:10014000A015A01D9C2823083806031D9C28240800
:100150003906031D9C283A083B06FF3A031D9C28DC
:100160001C20031D9C285330A8002015B6189C287D
:100170000B30220203189C2807302205A21DC42838
:100180000E20A900AA01C7280520A901AA008B13E7
:10019000A118DC282118D5282908AB042A08AC04AA
:1001A0002908A6062A08A706EE28FF302906A60574
:1001B000FF302A06A705EE28211CE528FF30290676
:1001C000AB05FF302A06AC05E9282908AB042A084C
:1001D000AC042908A6042A08A704EE280830FF204A
:1001E0008B179C288C10A80803190800A80B08007E
:1001F0002011A0112B08A6052C08A7050030260405
:100200008500270886000800831603131030850038
:10021000FF30860083120313060C07390319742973
:100220009921361C1029B61810293A083B06FF3AC6
:10023000031D1029060C0739B200060E0F390F3ABC
:10024000B10002303206031966290B30310203185F
:1002500010295521031D1029B1071C20031910294D
:100260003108831603139B008312031308308500A3
:100270003A088A2123083806031D42292408390632
:1002800003195329831603130E309B0083120313A3
:1002900038088A213908831603139B0A8A213808F3
:1002A000A3003908A4008501102903303206031980
:1002B0001B34053032060319263401303206031987
:1002C00010340630320603193134FF341C20031D6C
:1002D0001029831603131B087E21831603131B03A7
:1002E0007E218312031366290E30B10031087E216E
:1002F000B10A3C303106031D7629102983160313F9
:100300009B001C158312031308308500FF308A21DF
:1003100085010800831603131C159A0055309D00B3
:10032000AA309D009C149C1893291C11831203135E
:020330000800C3
:0E033200B6010430B700383084008316031380
:10034000053081008312031381010B110B19013455
:10035000051AA62981010B190234051EAB290108D3
:10036000B40081015D303402031C0334BB3034021D
:10037000031804340B190534051ABA290108B4000E
:100380008316031302308100831203138101173097
:100390003402031C06345D30340203180734343051
:1003A0003402031C072A0830B3000B190834051E59
:1003B000D5290108B400810125303402031C093419
:1003C0007030340203180A340B190B34051AE4296F
:1003D0000108B400810125303402031C0C34FA30CA
:1003E000340203180D348C303402B50CB30BD5290C
:1003F00035088000840AB70BD3293A06FF3A031D5B
:100400000E3436140B190034051E022A0034B614BB
:04041000361400346A
:044000000034003454
:02400E00413F30
:04421C000000FF009F
:1042200016000C0018005E000800FF00FF00FF00F1
:10423000FF00FF00FF0045000700FF00FF00FF0038
:10424000FF00FF00FF00FF00FF00FF004700150018
:10425000FF00FF00FF00FF00FF00FF00FF00FF0066
:10426000FF0046000900FF00FF00FF00FF00FF0005
:0A427000FF00FF00FF00FF00FF0049
:00000001FF
